{
  "_format": "hh-sol-artifact-1",
  "contractName": "Voting",
  "sourceName": "contracts/voting.sol",
  "abi": [
    {
      "anonymous": false,
      "inputs": [
        {
          "indexed": true,
          "internalType": "address",
          "name": "voter",
          "type": "address"
        },
        {
          "indexed": false,
          "internalType": "bytes32",
          "name": "candidate",
          "type": "bytes32"
        }
      ],
      "name": "Voted",
      "type": "event"
    },
    {
      "inputs": [
        {
          "internalType": "uint256",
          "name": "",
          "type": "uint256"
        }
      ],
      "name": "candidateList",
      "outputs": [
        {
          "internalType": "bytes32",
          "name": "",
          "type": "bytes32"
        }
      ],
      "stateMutability": "view",
      "type": "function"
    },
    {
      "inputs": [],
      "name": "getCandidates",
      "outputs": [
        {
          "internalType": "bytes32[]",
          "name": "",
          "type": "bytes32[]"
        }
      ],
      "stateMutability": "view",
      "type": "function"
    },
    {
      "inputs": [
        {
          "internalType": "address",
          "name": "",
          "type": "address"
        }
      ],
      "name": "hasVoted",
      "outputs": [
        {
          "internalType": "bool",
          "name": "",
          "type": "bool"
        }
      ],
      "stateMutability": "view",
      "type": "function"
    },
    {
      "inputs": [
        {
          "internalType": "bytes32",
          "name": "candidate",
          "type": "bytes32"
        }
      ],
      "name": "vote",
      "outputs": [],
      "stateMutability": "nonpayable",
      "type": "function"
    },
    {
      "inputs": [
        {
          "internalType": "bytes32",
          "name": "",
          "type": "bytes32"
        }
      ],
      "name": "votes",
      "outputs": [
        {
          "internalType": "uint256",
          "name": "",
          "type": "uint256"
        }
      ],
      "stateMutability": "view",
      "type": "function"
    }
  ],
  "bytecode": "0x608060405234801561001057600080fd5b50610766806100206000396000f3fe608060405234801561001057600080fd5b50600436106100575760003560e01c806306a49fce1461005c57806309eef43e1461007a5780632b38cd96146100aa578063a69beaba146100da578063b13c744b146100f6575b600080fd5b610064610126565b6040516100719190610444565b60405180910390f35b610094600480360381019061008f91906104c9565b61017e565b6040516100a19190610511565b60405180910390f35b6100c460048036038101906100bf9190610558565b61019e565b6040516100d1919061059e565b60405180910390f35b6100f460048036038101906100ef9190610558565b6101b6565b005b610110600480360381019061010b91906105e5565b610358565b60405161011d9190610621565b60405180910390f35b6060600280548060200260200160405190810160405280929190818152602001828054801561017457602002820191906000526020600020905b815481526020019060010190808311610160575b5050505050905090565b60006020528060005260406000206000915054906101000a900460ff1681565b60016020528060005260406000206000915090505481565b6000803373ffffffffffffffffffffffffffffffffffffffff1673ffffffffffffffffffffffffffffffffffffffff16815260200190815260200160002060009054906101000a900460ff1615610242576040517f08c379a000000000000000000000000000000000000000000000000000000000815260040161023990610699565b60405180910390fd5b60006001600083815260200190815260200160002054036102875760028190806001815401808255809150506001900390600052602060002001600090919091909150555b6001600082815260200190815260200160002060008154809291906102ab906106e8565b919050555060016000803373ffffffffffffffffffffffffffffffffffffffff1673ffffffffffffffffffffffffffffffffffffffff16815260200190815260200160002060006101000a81548160ff0219169083151502179055503373ffffffffffffffffffffffffffffffffffffffff167fc78796858497f000f0a77d7f0c624bbaf635bf26239188e8fba52c571db2398d8260405161034d9190610621565b60405180910390a250565b6002818154811061036857600080fd5b906000526020600020016000915090505481565b600081519050919050565b600082825260208201905092915050565b6000819050602082019050919050565b6000819050919050565b6103bb816103a8565b82525050565b60006103cd83836103b2565b60208301905092915050565b6000602082019050919050565b60006103f18261037c565b6103fb8185610387565b935061040683610398565b8060005b8381101561043757815161041e88826103c1565b9750610429836103d9565b92505060018101905061040a565b5085935050505092915050565b6000602082019050818103600083015261045e81846103e6565b905092915050565b600080fd5b600073ffffffffffffffffffffffffffffffffffffffff82169050919050565b60006104968261046b565b9050919050565b6104a68161048b565b81146104b157600080fd5b50565b6000813590506104c38161049d565b92915050565b6000602082840312156104df576104de610466565b5b60006104ed848285016104b4565b91505092915050565b60008115159050919050565b61050b816104f6565b82525050565b60006020820190506105266000830184610502565b92915050565b610535816103a8565b811461054057600080fd5b50565b6000813590506105528161052c565b92915050565b60006020828403121561056e5761056d610466565b5b600061057c84828501610543565b91505092915050565b6000819050919050565b61059881610585565b82525050565b60006020820190506105b3600083018461058f565b92915050565b6105c281610585565b81146105cd57600080fd5b50565b6000813590506105df816105b9565b92915050565b6000602082840312156105fb576105fa610466565b5b6000610609848285016105d0565b91505092915050565b61061b816103a8565b82525050565b60006020820190506106366000830184610612565b92915050565b600082825260208201905092915050565b7f596f75206861766520616c726561647920766f7465642e000000000000000000600082015250565b600061068360178361063c565b915061068e8261064d565b602082019050919050565b600060208201905081810360008301526106b281610676565b9050919050565b7f4e487b7100000000000000000000000000000000000000000000000000000000600052601160045260246000fd5b60006106f382610585565b91507fffffffffffffffffffffffffffffffffffffffffffffffffffffffffffffffff8203610725576107246106b9565b5b60018201905091905056fea2646970667358221220d4d5677a3f20eadf89e824b72aaaddedd4bc29ec4272fc345386fb4db32f788c64736f6c63430008180033",
  "linkReferences": {},
  "deployedLinkReferences": {}
}